S01000004563686F546573742E73726563F5
S11300000C9434000C9449000C9449000C9449005D
S11300100C9449000C9449000C9449000C94490038
S11300200C9449000C9449000C9449000C94490028
S11300300C9449000C9449000C9449000C94490018
S11300400C9449000C9449000C94A5000C944900AC
S11300500C9449000C9449000C9449000C944900F8
S11300600C9449000C94490011241FBECFEFD8E032
S1130070DEBFCDBF11E0A0E0B1E0E4EAF1E002C0F0
S113008005900D92AA30B107D9F70E944B000C9449
S1130090D0000C940000CF93DF93CDB7DEB7279741
S11300A00FB6F894DEBF0FBECDBF1B8280E091E097
S11300B09D838C831A8219828C819D810E94C70042
S11300C09F838E8382E08B838AE290E02B81FC0104
S11300D0208380EC90E0FC01108281EC90E028E920
S11300E0FC01208382EC90E026E0FC01208384EC78
S11300F090E027E630E0FC0131832083789486EC9D
S113010090E029813A814C815D81240F351FF901EA
S11301102081FC01208389819A8101969A838983B5
S113012029813A818E819F812817390714F01A8218
S11301301982000080EC90E0FC018081882F90E01F
S113014080729927892BB1F3DACF1F920F92009016
S11301505F000F9211248F939F93EF93FF93CF939C
S1130160DF931F92CDB7DEB786EC90E0FC0180816F
S1130170898300000F90DF91CF91FF91EF919F91C0
S11301808F910F9000925F000F901F901895FC01C3
S113019001900020E9F7809590958E0F9F1F089598
S10701A0F894FFCFFD
S10D01A44D6567613332380D0A001F
S9030000FC
