:100000000C9434000C9451000C9451000C94510049
:100010000C9451000C9451000C9451000C9451001C
:100020000C9451000C9451000C9451000C94FC0061
:100030000C9451000C9451000C9451000C945100FC
:100040000C9451000C9451000C9488000C945100B5
:100050000C9451000C9451000C9451000C945100DC
:100060000C9451000C94510011241FBECFEFD8E026
:10007000DEBFCDBF11E0A0E0B1E0E4E8F2E002C0F5
:1000800005900D92A230B107D9F721E0A2E0B1E0CE
:1000900001C01D92AA30B207E1F70E940E010C9434
:1000A00040010C94000083E884BD81E085BD8FE3AE
:1000B00087BD08951092C00088E98093C10086E052
:1000C0008093C2001092C50083E38093C40008951A
:1000D000CF93DF936623A1F0DC016150262F30E03F
:1000E0002F5F3F4F280F391FE0ECF0E0C6ECD0E067
:1000F000908195FFFDCF9D919883A217B307C1F71B
:10010000DF91CF91089586E184B980E48AB908959A
:100110001F920F920FB60F9211242F933F938F933C
:100120009F93EF93FF939091C600809104018111FA
:1001300021C02091020130910301F901E050FF4FED
:100140008081891312C02F5F3F4F2230310528F480
:10015000309303012093020144C0109203011092D6
:10016000020181E0809304013CC0109203011092CF
:10017000020137C08130A9F52091020130910301BD
:10018000F901EA5FFE4F9083C90101969093030144
:100190008093020102972CF1E6E0F1E091818081E9
:1001A000823091F028F4882349F0813059F013C04F
:1001B000843071F058F0853069F00DC081E0809393
:1001C000050109C02A9A07C02A9805C0299A03C0C8
:1001D000299801C097BD109203011092020110925C
:1001E0000401FF91EF919F918F913F912F910F907B
:1001F0000FBE0F901F9018951F920F920FB60F927F
:1002000011248F932D9A80910501813009F42D9846
:100210008F910F900FBE0F901F9018950E94830032
:100220000E945A000E9453002D9A7894C8E0D1E0B1
:1002300099B193FB992790F94A9992604C999460EF
:10024000359998604D999061349990624F99906476
:100250003399906823B121703299226031992460DA
:10026000309928601D9920689883298362E080E096
:1002700091E00E94680062E0CE010E946800D8CF41
:04028000F894FFCF20
:02028400FFFF7A
:00000001FF
