:100000000C9434000C9451000C9451000C94510049
:100010000C9451000C9451000C9451000C9451001C
:100020000C9451000C9451000C9451000C949A00C3
:100030000C9451000C9451000C9451000C945100FC
:100040000C9451000C9451000C948C000C945100B1
:100050000C9451000C9451000C9451000C945100DC
:100060000C9451000C94510011241FBECFEFD8E026
:10007000DEBFCDBF11E0A0E0B1E0E6E7F1E002C0F5
:1000800005900D92A830B107D9F721E0A8E0B1E0C2
:1000900001C01D92AA30B207E1F70E94AC000C9497
:1000A000B9000C94000083E884BD81E085BD8FE336
:1000B00087BD08951092C00088E98093C10086E052
:1000C0008093C2001092C50083E38093C40008951A
:1000D000CF93DF93EC011092080128812223A1F035
:1000E000E0ECF0E046EC50E0908195FFFDCFDA01C6
:1000F0002C93909108019F5F90930801DE01A90F56
:10010000B11D2C912111F0CFDF91CF91089586E19F
:1001100084B980E48AB908951F920F920FB60F92A6
:1001200011248F938091C6008F910F900FBE0F9076
:100130001F9018951F920F920FB60F9211248F9354
:100140002D9A80910901813009F42D988F910F909B
:100150000FBE0F901F9018950E9487000E945A00B2
:100160000E9453002D9A789480E091E00E946800EC
:06017000FBCFF894FFCF65
:080176004D6567610D0A0000F0
:00000001FF
