:100000000C9434000C9451000C9451000C94510049
:100010000C9451000C9451000C9451000C9451001C
:100020000C9451000C9451000C9451000C9411014B
:100030000C9451000C9451000C9451000C945100FC
:100040000C9451000C9451000C949D000C945100A0
:100050000C9451000C9451000C9451000C945100DC
:100060000C9451000C94510011241FBECFEFD8E026
:10007000DEBFCDBF11E0A0E0B1E0E0EFF2E002C0F2
:1000800005900D92A430B107D9F721E0A4E0B1E0CA
:1000900001C01D92AC30B207E1F70E9440010C9400
:1000A00076010C94000083E884BD81E085BD8FE378
:1000B00087BD0895109280008CE08093810082E0DB
:1000C00080936F0081E792E090938900809388008D
:1000D00008951092C00088E98093C10086E0809363
:1000E000C2001092C50083E38093C4000895CF93AB
:1000F000DF936623A1F0DC016150262F30E02F5FF3
:100100003F4F280F391FE0ECF0E0C6ECD0E09081C3
:1001100095FFFDCF9D919883A217B307C1F7DF919B
:10012000CF91089586E184B980E48AB981E085B9E8
:100130008FE388B98CEB8BB908951F920F920FB69D
:100140000F9211242F933F938F939F93EF93FF93DD
:100150009091C60080910601811121C02091040177
:1001600030910501F901EE5FFE4F8081981312C0B6
:100170002F5F3F4F2230310528F430930501209343
:10018000040144C0109205011092040181E08093A3
:1001900006013CC0109205011092040137C0813065
:1001A000A9F52091040130910501F901E85FFE4FA6
:1001B0009083C901019690930501809304010297F1
:1001C0002CF180910801823091F028F4882349F0C5
:1001D000813059F015C0843071F058F0853069F0E5
:1001E0000FC081E0809307010BC02A9A09C02A98AA
:1001F00007C0299A05C0299803C08091090187BDCD
:10020000109205011092040110920601FF91EF91E6
:100210009F918F913F912F910F900FBE0F901F9044
:1002200018951F920F920FB60F9211248F939F93E0
:1002300080910701811101C02C9A809107018130C2
:10024000C1F4809100019091010101979093010107
:10025000809300012C988091000190910101892BDD
:1002600041F41092070181E090E0909301018093A6
:1002700000019F918F910F900FBE0F901F901895C6
:100280000E9492000E9469000E9453000E945A003E
:100290002C9A2A9A299A7894CAE0D1E089B183FBF2
:1002A000882780F94A9982604C99846035998860E2
:1002B0004D998061349980624F9980643399806848
:1002C00093B19170329992603199946030999860AD
:1002D0001D9990688883998362E082E091E00E9492
:1002E000770062E0CE010E947700D8CFF894FFCF6C
:0402F0000100505267
:00000001FF
