:100000000C9434000C9451000C9451000C94510049
:100010000C9451000C9451000C9451000C9451001C
:100020000C9451000C9451000C9451000C949600C7
:100030000C9451000C9451000C9451000C945100FC
:100040000C9451000C9451000C9488000C945100B5
:100050000C9451000C9451000C9451000C945100DC
:100060000C9451000C94510011241FBECFEFD8E026
:10007000DEBFCDBF11E0A0E0B1E0E8EBF1E002C0EF
:1000800005900D92A230B107D9F721E0A2E0B1E0CE
:1000900001C01D92A730B207E1F70E94A8000C949E
:1000A000DA000C94000083E884BD81E085BD8FE315
:1000B00087BD08951092C00088E98093C10086E052
:1000C0008093C2001092C50083E38093C40008951A
:1000D000CF93DF936623A1F0DC016150262F30E03F
:1000E0002F5F3F4F280F391FE0ECF0E0C6ECD0E067
:1000F000908195FFFDCF9D919883A217B307C1F71B
:10010000DF91CF91089586E184B980E48AB908959A
:100110001F920F920FB60F9211248F938091C600F9
:100120008F910F900FBE0F901F9018951F920F92F6
:100130000FB60F9211248F932D9A80910201813076
:1001400009F42D988F910F900FBE0F901F90189566
:100150000E9483000E945A000E9453002D9A7894B6
:10016000C5E0D1E099B193FB992790F94A99926043
:100170004C999460359998604D999061349990624A
:100180004F9990643399906823B12170329922601D
:1001900031992460309928601D99206898832983BB
:1001A00062E080E091E00E94680062E0CE010E947F
:0801B0006800D8CFF894FFCFDE
:0201B800FFFF47
:00000001FF
